{"abi":[{"type":"constructor","inputs":[{"name":"_multicall3","type":"address","internalType":"address"}],"stateMutability":"nonpayable"},{"type":"fallback","stateMutability":"payable"},{"type":"receive","stateMutability":"payable"},{"type":"function","name":"cleanupERC20","inputs":[{"name":"token","type":"address","internalType":"address"},{"name":"refundTo","type":"address","internalType":"address"}],"outputs":[],"stateMutability":"nonpayable"},{"type":"function","name":"multicall3","inputs":[],"outputs":[{"name":"","type":"address","internalType":"address"}],"stateMutability":"view"},{"type":"function","name":"sellToPool","inputs":[{"name":"sellToken","type":"address","internalType":"address"},{"name":"bps","type":"uint256","internalType":"uint256"},{"name":"pool","type":"address","internalType":"address"},{"name":"offset","type":"uint256","internalType":"uint256"},{"name":"data","type":"bytes","internalType":"bytes"}],"outputs":[],"stateMutability":"nonpayable"},{"type":"error","name":"CallFailed","inputs":[{"name":"returnData","type":"bytes","internalType":"bytes"}]},{"type":"error","name":"InvalidOffset","inputs":[]},{"type":"error","name":"InvalidTarget","inputs":[]}],"bytecode":{"object":"0x60a0604052348015600e575f80fd5b50604051610af5380380610af5833981016040819052602b91603b565b6001600160a01b03166080526066565b5f60208284031215604a575f80fd5b81516001600160a01b0381168114605f575f80fd5b9392505050565b608051610a716100845f395f81816046015261014e0152610a715ff3fe608060405260043610610037575f3560e01c80633dad0c9c1461011c57806394b41e521461013d578063ed856306146101995761003e565b3661003e57005b5f3660605f807f000000000000000000000000000000000000000000000000000000000000000073ffffffffffffffffffffffffffffffffffffffff16858560405161008b929190610774565b5f60405180830381855af49150503d805f81146100c3576040519150601f19603f3d011682016040523d82523d5f602084013e6100c8565b606091505b50915091508161010f57806040517fa5fa8d2b00000000000000000000000000000000000000000000000000000000815260040161010691906107a5565b60405180910390fd5b8051945060200192505050f35b348015610127575f80fd5b5061013b61013636600461081d565b6101b8565b005b348015610148575f80fd5b506101707f000000000000000000000000000000000000000000000000000000000000000081565b60405173ffffffffffffffffffffffffffffffffffffffff909116815260200160405180910390f35b3480156101a4575f80fd5b5061013b6101b336600461087b565b6102eb565b6040517f70a082310000000000000000000000000000000000000000000000000000000081523060048201525f9073ffffffffffffffffffffffffffffffffffffffff8416906370a0823190602401602060405180830381865afa158015610222573d5f803e3d5ffd5b505050506040513d601f19601f820116820180604052508101906102469190610977565b905080156102e6576040517fa9059cbb00000000000000000000000000000000000000000000000000000000815273ffffffffffffffffffffffffffffffffffffffff83811660048301526024820183905284169063a9059cbb906044016020604051808303815f875af11580156102c0573d5f803e3d5ffd5b505050506040513d601f19601f820116820180604052508101906102e4919061098e565b505b505050565b5f60608173ffffffffffffffffffffffffffffffffffffffff88166103ff5761271061031788476109e1565b61032191906109fe565b905083515f036103d5578415610363576040517f01da157200000000000000000000000000000000000000000000000000000000815260040160405180910390fd5b60405173ffffffffffffffffffffffffffffffffffffffff87169082905f81818185875af1925050503d805f81146103b6576040519150601f19603f3d011682016040523d82523d5f602084013e6103bb565b606091505b5090935091506103cd83151583610602565b5050506105fb565b83516103e2602087610a36565b95508511156103f5576103f56032610614565b8085850152610525565b6040517f70a082310000000000000000000000000000000000000000000000000000000081523060048201525f9061271090899073ffffffffffffffffffffffffffffffffffffffff8c16906370a0823190602401602060405180830381865afa15801561046f573d5f803e3d5ffd5b505050506040513d601f19601f820116820180604052508101906104939190610977565b61049d91906109e1565b6104a791906109fe565b85519091506104b7602088610a36565b96508611156104ca576104ca6032610614565b80868601528673ffffffffffffffffffffffffffffffffffffffff168973ffffffffffffffffffffffffffffffffffffffff16146105235761052373ffffffffffffffffffffffffffffffffffffffff8a168883610625565b505b8573ffffffffffffffffffffffffffffffffffffffff16818560405161054b9190610a49565b5f6040518083038185875af1925050503d805f8114610585576040519150601f19603f3d011682016040523d82523d5f602084013e61058a565b606091505b50909350915061059c83151583610602565b81511580156105c0575073ffffffffffffffffffffffffffffffffffffffff86163b155b156105f7576040517f82d5d76a00000000000000000000000000000000000000000000000000000000815260040160405180910390fd5b5050505b5050505050565b816106105761061081610702565b5050565b634e487b715f52806020526024601cfd5b6040517fdd62ed3e00000000000000000000000000000000000000000000000000000000815230600482015273ffffffffffffffffffffffffffffffffffffffff83811660248301525f919085169063dd62ed3e90604401602060405180830381865afa158015610698573d5f803e3d5ffd5b505050506040513d601f19601f820116820180604052508101906106bc9190610977565b9050818110156102e45780156106d7576106d784845f61070a565b6102e484847fffffffffffffffffffffffffffffffffffffffffffffffffffffffffffffffff61070a565b805160208201fd5b81601452806034526f095ea7b30000000000000000000000005f5260205f604460105f875af161074d576040516bffffffffffffffffffffffff163d5f823e3d81fd5b3d153d601f1060015f5114161761076b57633e3f8f735f526004601cfd5b5f603452505050565b818382375f9101908152919050565b5f5b8381101561079d578181015183820152602001610785565b50505f910152565b602081525f82518060208401526107c3816040850160208701610783565b601f017fffffffffffffffffffffffffffffffffffffffffffffffffffffffffffffffe0169190910160400192915050565b803573ffffffffffffffffffffffffffffffffffffffff81168114610818575f80fd5b919050565b5f806040838503121561082e575f80fd5b610837836107f5565b9150610845602084016107f5565b90509250929050565b7f4e487b71000000000000000000000000000000000000000000000000000000005f52604160045260245ffd5b5f805f805f60a0868803121561088f575f80fd5b610898866107f5565b9450602086013593506108ad604087016107f5565b925060608601359150608086013567ffffffffffffffff808211156108d0575f80fd5b818801915088601f8301126108e3575f80fd5b8135818111156108f5576108f561084e565b604051601f82017fffffffffffffffffffffffffffffffffffffffffffffffffffffffffffffffe0908116603f0116810190838211818310171561093b5761093b61084e565b816040528281528b6020848701011115610953575f80fd5b826020860160208301375f6020848301015280955050505050509295509295909350565b5f60208284031215610987575f80fd5b5051919050565b5f6020828403121561099e575f80fd5b815180151581146109ad575f80fd5b9392505050565b7f4e487b71000000000000000000000000000000000000000000000000000000005f52601160045260245ffd5b80820281158282048414176109f8576109f86109b4565b92915050565b5f82610a31577f4e487b71000000000000000000000000000000000000000000000000000000005f52601260045260245ffd5b500490565b808201808211156109f8576109f86109b4565b5f8251610a5a818460208701610783565b919091019291505056fea164736f6c6343000819000a","linkReferences":{}},"methodIdentifiers":{"cleanupERC20(address,address)":"3dad0c9c","multicall3()":"94b41e52","sellToPool(address,uint256,address,uint256,bytes)":"ed856306"},"id":1}